:020000040800F2
:10000000402A0024A1110008496700088D1100084A
:100010008D1100088D1100088D11000800000000EE
:10002000000000000000000000000000D9110008DE
:100030008D11000800000000CD13000839350008BC
:10004000451400084514000845140008451400082C
:10005000451400084514000845140008451400081C
:10006000451400084514000845140008451400080C
:1000700045140008451400084514000845140008FC
:1000800045140008451400084514000845140008EC
:1000900045140008451400084514000845140008DC
:1000A00045140008451400084514000845140008CC
:1000B00045140008451400084514000845140008BC
:1000C00045140008451400084514000845140008AC
:1000D000451400084514000845140008451400089C
:1000E000451400084514000845140008451400088C
:1000F000451400084514000845140008451400087C
:10010000451400084514000845140008451400086B
:10011000451400084514000845140008451400085B
:10012000451400084514000845140008451400084B
:10013000451400084514000845140008451400083B
:10014000451400084514000845140008451400082B
:10015000451400084514000845140008451400081B
:10016000451400084514000845140008451400080B
:1001700045140008451400084514000845140008FB
:1001800045140008451400084514000845140008EB
:1001900045140008451400084514000845140008DB
:1001A00045140008451400084514000845140008CB
:0401B00045140008EA
:1001B40080F0004002E000BF81F0004142001FBF18
:1001C4005FEA410392EA030F7FEA226C7FEA236C21
:1001D4006AD04FEA1262D2EB1363C1BFD218414016
:1001E40048404140B8BF5B42192B88BF704710F0AC
:1001F400004F40F4000020F07F4018BF404211F04F
:10020400004F41F4000121F07F4118BF494292EAB6
:10021400030F3FD0A2F1010241FA03FC10EB0C00E2
:10022400C3F1200301FA03F100F0004302D549426F
:1002340060EB4000B0F5000F13D3B0F1807F06D31C
:1002440040084FEA310102F10102FE2A51D2B1F114
:10025400004F40EBC25008BF20F0010040EA030009
:100264007047490040EB0000013A28BFB0F5000F89
:10027400EDD2B0FA80FCACF1080CB2EB0C0200FA3F
:100284000CF0AABF00EBC25052421843BCBFD0408E
:100294001843704792F0000F81F4000106BF80F408
:1002A40000000132013BB5E74FEA41037FEA226CCB
:1002B40018BF7FEA236C21D092EA030F04D092F096
:1002C400000F08BF0846704790EA010F1CBF0020CA
:1002D400704712F07F4F04D1400028BF40F0004027
:1002E400704712F100723CBF00F50000704700F047
:1002F400004343F0FE4040F4000070477FEA22626E
:1003040016BF08467FEA23630146420206BF5FEA3E
:10031400412390EA010F40F4800070474FF000033E
:1003240004E000BF10F0004348BF40425FEA000C05
:1003340008BF704743F0964301464FF000001CE0AD
:1003440050EA010208BF70474FF000030AE000BF03
:1003540050EA010208BF704711F0004302D5404241
:1003640061EB41015FEA010C02BF844601460020B3
:1003740043F0B64308BFA3F18053A3F50003BCFACE
:100384008CF2083AA3EBC25310DB01FA02FC63447B
:1003940000FA02FCC2F12002BCF1004F20FA02F282
:1003A40043EB020008BF20F00100704702F1200275
:1003B40001FA02FCC2F1200250EA4C0021FA02F2D6
:1003C40043EB020008BF20EADC7070474FF0FF0CDB
:1003D4001CEAD0521EBF1CEAD15392EA0C0F93EAD6
:1003E4000C0F6FD01A4480EA010C400218BF5FEA78
:1003F40041211ED04FF0006343EA501043EA5111EB
:10040400A0FB01310CF00040B1F5000F3EBF4900E4
:1004140041EAD3715B0040EA010062F17F02FD2AE8
:100424001DD8B3F1004F40EBC25008BF20F00100CB
:10043400704790F0000F0CF0004C08BF49024CEAE2
:10044400502040EA51207F3AC2BFD2F1FF0340EA74
:10045400C250704740F400004FF00003013A5DDCE5
:1004640012F1190FDCBF00F000407047C2F1000226
:10047400410021FA02F1C2F1200200FA02FC5FEA13
:10048400310040F1000053EA4C0308BF20EADC705D
:10049400704792F0000F00F0004C02BF400010F4CF
:1004A400000F013AF9D040EA0C0093F0000F01F07C
:1004B400004C02BF490011F4000F013BF9D041EA9E
:1004C4000C018FE70CEAD15392EA0C0F18BF93EAA0
:1004D4000C0F0AD030F0004C18BF31F0004CD8D1CA
:1004E40080EA010000F00040704790F0000F17BF51
:1004F40090F0004F084691F0000F91F0004F14D097
:1005040092EA0C0F01D142020FD193EA0C0F03D1EE
:100514004B0218BF084608D180EA010000F00040F1
:1005240040F0FE4040F40000704740F0FE4040F4CC
:10053400400070474FF0FF0C1CEAD0521EBF1CEA6B
:10054400D15392EA0C0F93EA0C0F69D0A2EB030289
:1005540080EA010C49024FEA402037D04FF0805323
:1005640043EA111143EA10130CF000408B4238BFE8
:100574005B0042F17D024FF4000C8B4224BF5B1AF6
:1005840040EA0C00B3EB510F24BFA3EB510340EA44
:100594005C00B3EB910F24BFA3EB910340EA9C00F2
:1005A400B3EBD10F24BFA3EBD10340EADC001B0162
:1005B40018BF5FEA1C1CE0D1FD2A3FF650AF8B4206
:1005C40040EBC25008BF20F0010070470CF0004C13
:1005D4004CEA50207F32C2BFD2F1FF0340EAC2503E
:1005E400704740F400004FF00003013A37E792F0FF
:1005F400000F00F0004C02BF400010F4000F013A5D
:10060400F9D040EA0C0093F0000F01F0004C02BF57
:10061400490011F4000F013BF9D041EA0C0195E7C0
:100624000CEAD15392EA0C0F08D142027FF47DAF59
:1006340093EA0C0F7FF470AF084676E793EA0C0F49
:1006440004D14B023FF44CAF08466EE730F0004C47
:1006540018BF31F0004CCAD130F000427FF45CAFD7
:1006640031F000437FF43CAF5FE700BF42000ED29D
:10067400B2F1FE4F0BD34FF09E03B3EB126209D4D9
:100684004FEA002343F0004323FA02F070474FF08F
:100694000000704712F1610F01D1420202D14FF004
:1006A400FF3070474FF00000704700BF53B94AB99C
:1006B400002908BF00281CBF4FF0FF314FF0FF3066
:1006C40000F00CB8ADF1080C6DE904CE00F012F89E
:1006D400DDF804E0DDE9022304B07047704700BF91
:1006E40010F8012B11F8013B012A28BF9A42F7D0D8
:1006F400D01A70472DE9F0478C468E46089E154661
:1007040004461946002B40F0D080724547D9B2FA0E
:1007140082F74FB1C7F120030EFA07FC20FA03F366
:10072400BD4043EA0C0CBC404FEA154EA8B2BCFBDA
:10073400FEF8230C0EFB18CC08FB00F943EA0C432B
:10074400994528D9EB1808F1FF3204D2994502D90A
:10075400A8F102022B44A3EB0903A4B2B3FBFEFCF1
:100764000EFB1C330CFB00F044EA0344A04214D9F2
:100774002C190CF1FF3304D2A04202D9ACF10203CC
:100784002C44241A43EA02401EB1FC400023346086
:100794007360BDE8F0874246DDE76346F1E7002A6F
:1007A40079D0B2FA82F3002B3FD01946C1F120036D
:1007B40002FA01F52EFA03F20EFA01FE20FA03F30F
:1007C40043EA0E034FEA154E00FA01F4B2FBFEFCB5
:1007D400AFB20EFB1C201A0C0CFB07F842EA0042D5
:1007E40090455AD9AA180CF1FF3004D2904502D989
:1007F400ACF102002A44A2EB08029BB2B2FBFEFC5D
:100804000EFB1C220CFB07F743EA02439F4246D926
:10081400EB180CF1FF3204D29F4202D9ACF1020270
:100824002B44DB1B42EA004202E0AEEB020301224E
:100834004FEA154EAFB2B3FBFEFC200C0EFB1C338B
:100844000CFB07F840EA034398452AD9EB180CF14E
:10085400FF3004D2984502D9ACF102002B44A3EB3B
:100864000803A4B2B3FBFEFC0EFB1C330CFB07F71E
:1008740044EA0344A74216D92C190CF1FF3304D2DD
:10088400A74202D9ACF102032C44E41B43EA004022
:100894000F46114678E71F2188E76046ABE76246BA
:1008A400BFE76046DBE76346EFE7734506D916B951
:1008B400002108466DE7C6E9000EF9E7B3FA83F7AD
:1008C40087B9734501D3824207D8841A6EEB0303B8
:1008D40001209C461EB900215BE73846FAE7C6E9C9
:1008E400004CF8E7C7F1200CBB4022FA0CF51D437D
:1008F40020FA0CF12EFA0CF30EFA07FE41EA0E016F
:100904004FEA154900FA07F4B3FBF9F81FFA85FE1C
:1009140009FB18300B0C08FB0EFA43EA00439A4516
:1009240002FA07F240D9EB1808F1FF3004D29A45D5
:1009340002D9A8F102002B44A3EB0A0389B2B3FB4A
:10094400F9F809FB183308FB0EFE41EA03418E4512
:100954002CD9691808F1FF3304D28E4502D9A8F1C5
:100964000203294443EA0040A0FB0298A1EB0E01D4
:100974004145CE46434602D306D14C4504D2B9EB99
:10098400020E68EB05030138002EA4D0B4EB0E026E
:1009940061EB030101FA0CFC22FA07F34CEA0303AE
:1009A400F940C6E9003196E74046C5E74346D9E732
:1009B40038B50E4C204608F0AEFFA8B122690321D9
:1009C400A5682046136823F0080313604FF4C0227F
:1009D4002B68984708216B6920469847002141F20B
:1009E400883009F08EFAF5E738BD00BF14A300087B
:1009F40008B5054805F095FD044808F065FF04486E
:100A040005F08FFD002008BD2EAA0008404B4C00C5
:100A14006AAA0008014B1B68184700BFD0000024D5
:100A2400014B1860704700BFD000002430B5044665
:100A340085B00D4610220021684609F028FB0223E8
:100A44002A4621468DF802306846034B019305F08F
:100A540027F905B030BD00BF190A0008054B002076
:100A64005A6822F002025A605A6822F001025A605F
:100A7400704700BF0010005C38B545680F4C204635
:100A840008F049FF98B1A3681B689BB1294620462A
:100A9400984700280ADB00F037F8094B9A6842F0BF
:100AA40001029A609A68D207FCD5002038BD6FF025
:100AB4001200FBE76FF05700F8E700BF50A20008F0
:100AC4000048025808B5416805480C3183681B6822
:100AD4001BB1984700EAE07008BD6FF05700F9E7D2
:100AE40050A200080A2810B502D90024204610BDDF
:100AF400044B53F82040204608F00DFF0028F5D1A0
:100B0400F3E700BF70A80008EFF31180102383F30C
:100B14001288BFF36F8F094B1A683AB9084A1168F3
:100B240041F4807111601168C905FCD51A6801325D
:100B34001A6080F31188BFF36F8F704798120024F6
:100B44000048025808B500F0C1FC00F091FC0C4BC1
:100B54000C4A1A600C4AD36823F0070343F00203DB
:100B6400D3600A4B1A6841F20303B3EB124F06D168
:100B7400074AD2F8083143F00103C2F8083108BD2E
:100B84001C0300240090D003004802580010005CAD
:100B940000800051014B036002207047C8A8000880
:100BA4000E4A0F4B13B5012818BF1A4604460146D6
:100BB4000C4806F064FA70B9012322460A49094830
:100BC40006F058FB38B90123EF222146054800936B
:100BD400022305F055FE02B010BD00BFD40000246E
:100BE400E8000024B004002497AB000808B51549B8
:100BF400154805F03BFF20BB1449134805F036FFA8
:100C0400F8B91349104805F031FFD0B911490E481D
:100C140005F02CFFA8B90C4805F02BFE01280CD0D8
:100C24000020FFF7BDFF60B9074805F052FE40B948
:100C34000548BDE8084005F07CBEFFF7B1FF002879
:100C4400EED008BD74010024B00400245C0100242B
:100C5400440100242C01002480B505460E461746A5
:100C6400984604F0D1FDDFF82090034600F0FAFB2B
:100C74000446424649F8003039463046A84754F8FD
:100C8400090000F08BFB00BF0800000003480021AE
:100C9400034A08B5121A05F04DFD08BD600500248D
:100CA400D01500240748084A0849121A08B505F067
:100CB40043FD0748074A0849121ABDE8084005F0F1
:100CC4003BBD00BF000000245C050024A4B0000864
:100CD4000000002400000024A4B0000838B5054634
:100CE4000C4699B11048D1E90123096805F019FCB3
:100CF400E1680E48D4E9042305F013FCE1690C48CB
:100D040005F00FFCA1690B4805F00BFC012D05D182
:100D1400EFF305810848103905F003FC2146284605
:100D2400BDE8384003F05EBCB0AB0008E0AB00089F
:100D340010AC000820AC00084FAC000830BFFFF72F
:100D4400FDBF00BF2DE9F0410B4E0546DFF82C80B6
:100D5400324606EB0807CC1B0949204609F089F9FD
:100D6400A019083C4246002109F091F907F1080056
:100D74002C67BDE8F08100BF0000000008000000FF
:100D840084A700082DE9F843324D8046324889464D
:100D9400174605F0C6FBAB6ADE0622D511242F48A0
:100DA40005F0BFFBAB6A1D0703D512242C4805F0E0
:100DB400B8FB284DAB6A980715D52A4805F0B1FB56
:100DC4006E6BAB6A190642D53146274805F0A9FB7C
:100DD400B9F1000F03D0AB6A23F08003AB62132494
:100DE40003E01024DEE76FF015061A4DAB6ADA074C
:100DF40003D514241D4805F094FBAB6A9B0603D568
:100E040015241B4805F08DFB124B9A6AD50602D4B3
:100E14009A6A90070AD55B68190507D5414630469A
:100E240000F072FA10B180F309880224094B9A6A1F
:100E3400920603D55A6A22F400525A629A6A2046EC
:100E440042F0FF029A6200233B70BDE8F8836FF022
:100E54001506C4E700ED00E063AC00087AAC0008B6
:100E6400AEAC0008C2AC0008DBAC0008F2AC000871
:100E740012AD000810B51D4C1D4805F052FBA36AC5
:100E8400990130D51B4805F04CFB1E20A36ADA01FA
:100E940003D5194805F045FB1F20144CA36A1B0316
:100EA40003D5164805F03DFB2120A36A590303D559
:100EB400134805F036FB22200C4CA36A9A0303D591
:100EC400104805F02EFB2320A36ADB0303D50E484C
:100ED40005F027FB2420054A936A6FEA03436FEA6F
:100EE4001343936210BD1D20D0E700BF00ED00E066
:100EF40042AD00085BAD00086FAD00088AAD000884
:100F0400A9AD0008CFAD0008EAAD000870B5244CC7
:100F1400064624480D4605F004FBA36AD90435D5DA
:100F2400214805F0FEFA1720A36A1A0503D51F48C5
:100F340005F0F7FA18201A4CA36A9B050FD51C4834
:100F440005F0EFFAA16BA36A180407D5194805F058
:100F5400E8FA1EB1A36A23F40043A3621920104CDB
:100F6400A36A590503D5144805F0DBFA1A20A36ACD
:100F7400DA050DD5114805F0D4FA1B20084A936A06
:100F840043F47F43936200232B7070BD1620CBE79C
:100F9400A36A9B04F2D50A4805F0C3FA1C20EDE7C6
:100FA40000ED00E016AE00082DAE0008AEAC00085F
:100FB4003FAE000859AE00086FAE00088BAE0008C3
:100FC40012AD00085F4B2DE9F0415F688AB004461A
:100FD4000025C7F3080685F31188BFF36F8F02F06D
:100FE4007F43B3F17F4F06D102F00C03082B13D1DA
:100FF400554805F096FA00252C464FF00008F31EDC
:101004008DF80780092B00F28D80DFE803F00A8158
:10101400857D8B8B8B8B8B8910074CBF0C460125F0
:10102400EBE7484E494805F07CFA8DF80780F36AEF
:101034009A0704D5464805F074FA00232AE0F36AB7
:10104400002B01DA4348F6E7F36A5B00F5D5424822
:1010540005F067FA7369A26943F480737361BFF39F
:101064004F8FBFF36F8F32F8023C726922F48072A3
:101074007261BFF34F8FBFF36F8F03F47F42B2F5FA
:101084005F4F28D1DBB2022B25D12168334805F00C
:1010940048FA23689DF80720D2B902AE04F120076C
:1010A4002068083454F8041C3246BC4203C2164675
:1010B400F6D1099A002D41D0C2F3080121B96FEA93
:1010C40052226FEA4222099202A91846FFF706FE4D
:1010D4000AB0BDE8F0811B4B9A6AD2B232B10DF16D
:1010E400070201212046FFF74DFE0FE09A6A12F431
:1010F4007F4F05D00DF107010120FFF707FF05E041
:101104009B6AB3F5803F98D3FFF7B4FE0346C1E76B
:101114000DF107020021E5E70DF107010020ECE7DE
:101124000F4888E717F4F87F0E4B0F49A6F1100219
:1011340008BF19460D4805F0F4F97EE76FF308027D
:10114400C1E700BF00ED00E0D2AE0008FEAE00082B
:1011540016AF000838AF000847AF000867AF0008B3
:1011640084AF0008A4AE0008B9AE0008A9AF000817
:10117400044B5A6942F010025A615A6922F008027B
:101184005A61704700ED00E0EFF30880EFF3098146
:1011940001B57246FFF716FF01BD00BF0B4880F38F
:1011A400088805F0C6FA102080F3118808484FF427
:1011B4000461401880F30988EFF314800221084386
:1011C40080F31488BFF36F8F00F06AF8402A00247C
:1011D400801C00241EF0040F0CBFEFF30880EFF313
:1011E4000980816911F8021C0229FFD001B57246F9
:1011F40005F0A4FA01BD00BF00B2002807DB0123FB
:10120400410900F01F00024A834042F82130704730
:1012140000E100E000B200280CDB4309012200F0E9
:101224001F0005492033824041F82320BFF34F8F2C
:10123400BFF36F8F704700BF00E100E04209054B28
:1012440000F01F0053F82220012303FA00F010409D
:10125400704700BF00E100E000B2013100284FEA0E
:101264000111C9B206DB00F1604000F5614080F86D
:101274000013704700F00F00014B1954704700BF72
:1012840014ED00E0044B054A23F07F039360BFF3A1
:101294004F8FBFF36F8F70470000000800ED00E030
:1012A40008B5FFF7EFFF0C4AD2F8883023F4700337
:1012B400C2F88830EFF3148323F0040383F3148813
:1012C400BFF36F8FFFF7E2FCFFF7ECFC00F0ACF824
:1012D40005F05AFA03F04AFA00ED00E042F8203C27
:1012E400203A009B07495360019B21F00101936060
:1012F400029B9161D3604FF08073D3610023026538
:10130400436770475D0C0008094A0346906870B152
:1013140013F1160F006E05D0A0F14002934205D3DD
:10132400834203D2814228BF0020704700207047C7
:101334009815002415460C4A0E4608B50B4B9060D0
:10134400026F1A6000F0E8F82C4686F30988002042
:10135400034B98472046002100220023014C2047DC
:10136400656700085D0C0008981500249C12002491
:10137400014B10221A61704700ED00E0054B5A69D9
:101384009B689A4204D0044A536843F080535360E4
:10139400704700BF9815002400ED00E0084B9B68DF
:1013A40083420BD1EFF3058343B1064B5A6842F0F5
:1013B40080525A605A6A22F400425A6208F0E0BC31
:1013C4009815002400ED00E014498A684FF03000BD
:1013D4001044EFF3098C80E8F01F102080F312888A
:1013E400BFF36F8F0E4F4FF000664A698A603E600C
:1013F400106F0C4C2060506F0023536780F31188EA
:1014040004B5104600F088F8BDE8044002F130004D
:1014140090E8F01F8CF309887047000098150024A9
:1014240004ED00E09C120024002304481021C2189B
:1014340001335D2B82F80013F9D1704700E100E01D
:1014440008B5EFF30583064A103B02EBC30152F8DB
:10145400330049688847BDE80840FFF78FBF00BFE5
:1014640010A4000801480068704700009C12002482
:10147400154A70B5536913F4803323D1C2F884300C
:10148400BFF34F8FD2F8803043F6E074C3F3C90042
:10149400C3F34E335B0103EA0406014646EA817551
:1014A4000139C2F86052F9D2203B13F1200FF2D176
:1014B400BFF34F8F536943F480335361BFF34F8FAE
:1014C400BFF36F8F70BD00BF00ED00E00B4B5A6996
:1014D40012F4003211D1BFF34F8FBFF36F8FC3F8F3
:1014E4005022BFF34F8FBFF36F8F5A6942F400321B
:1014F4005A61BFF34F8FBFF36F8F704700ED00E069
:10150400024B0121024A034800F076B8000004248B
:1015140000000024E8A80008036E4021044A403B70
:1015240010461360034BC2E90113012100F06EB8A9
:10153400A012002400000B15084AC2F898000B689A
:1015440023F01F03034343F01003C2F89C308B685D
:1015540043F00103C2F8A030704700BF00ED00E083
:101564002DE9F0430E4685B01F4604464FF00009AE
:10157400DFF85480B14523DA6068D8B13FB1411E29
:1015840008421BD11F2819D92368194216D1236890
:10159400019305F0FAF8A3680343D0B20393D8F893
:1015A4009050C5F30725013DA84207D801A9FFF7CC
:1015B400C3FF421C09F101090C34DBE76FF015028B
:1015C400104605B0BDE8F08300ED00E0044B0522B1
:1015D400C3F89420BFF34F8FBFF36F8F704700BFE2
:1015E40000ED00E0BFF35F8F024B0022C3F89420AC
:1015F400704700BF00ED00E010B5034C01232278D2
:10160400FFF7AEFF207010BDCC1500240B4A08B5BF
:1016140000231278FFF7A4FF10F1160F07D0084A31
:101624000021D2F89030C3F30723984200DB08BDB1
:10163400C2F898000130C2F8A010F2E7CC150024DB
:1016440000ED00E05B4B2DE9F0435B4D85B0D3F832
:1016540090302C68C3F307239C4200F2A78000203B
:101664000C26FFF7BFFF84421AD1544E6846002768
:10167400DFF840913470FFF78DFA514C8046514D9C
:10168400B84514D1337800204A49D1F89020C2F3E8
:1016940007229342C0F284800020FFF797FF45E0C1
:1016A400696806FB0011FFF747FF0130DBE700988C
:1016B4004FEA071C00EB0711CB682340B3F5000F7A
:1016C4004DD00AD8B3F5001F33D0B3F5800F3BD00B
:1016D400B3F5801F13D00137D2E7B3F1007F47D0B1
:1016E400B3F1805F4DD0B3F1807FF4D150F80C306A
:1016F400886805F04AF84A6840F0887009E050F8B4
:101704000C30886805F041F840F088504A6840F48D
:10171400302003903078CDE90123D9F89030C3F319
:101724000723013B984234D96FF0150005B0BDE89A
:10173400F08350F80C30886805F027F840F08850A2
:101744004A6840F40020E4E750F80C30886805F05B
:101754001CF840F0C0604A6840F40030D9E750F803
:101764000C30886805F011F84A6840F08270D0E7C0
:1017740050F80C30886805F008F84A6840F4802076
:10178400C7E750F80C30886804F0FFFF4A68284324
:10179400BFE701A9FFF7D0FE3378013333709AE72E
:1017A400C1F898300133C1F8A0006EE74FF0FF3064
:1017B400BCE700BF00ED00E09CA80008CC150024A5
:1017C4000000F0FF0000021108B5024B1B689847A7
:1017D400002008BDAC120024034B044A186093781F
:1017E40043F0020393707047AC1200248C01002470
:1017F4000649074821F00701C1F1105208B502F566
:10180400802204F04BFE002008BD00BF473E0024A8
:10181400B012002470B541690446867A0A4D59B164
:10182400437ADB0706D4242303FB0653DB691B68D6
:101834009B689847002363612420214600FB0650DF
:10184400BDE8704008F005BA680400242422024B65
:1018540002FB0030704700BF68040024827A242110
:10186400054B01FB02331A6A1B7D801A1B3323F0DC
:101874000303B0FBF3F070476804002438B5242454
:10188400827A064B04FB0233DB69D3E901240C6042
:101894001568FFF7E3FF04FB005038BD680400241B
:1018A4002DE9F04385B0054690461C4668460391F1
:1018B40008F086FBDDE90067EFF31189102383F359
:1018C4001288BFF36F8F6B8A002B41D02A8A9A4209
:1018D40025D900220023284603F094F90446F0B1E8
:1018E40089F31188BFF36F8F039B002B41D03246DD
:1018F4003B46684608F089FBA27A2421254B204602
:1019040001FB023303A9DB691B681D68DDE90023C1
:10191400A847606170BB2046FFF77CFF24E0698A1A
:101924004B1E6B8289F31188BFF36F8F2B7D2A8A3C
:101934001B332C6A521A23F0030302FB0344154B96
:10194400154AEB1A9B105343A3722B7DE372CBE72A
:1019540089F31188BFF36F8F23464246284603F06C
:1019640051F904460028BFD10024204605B0BDE843
:10197400F083636101230025E27A04F118002381D6
:101984002946039B6560638208F081FB63692582B5
:10199400E360EAE768040024398EE338F8B50024EC
:1019A400114D242600B9F8BD00F108024768BFF3C1
:1019B4005B8F52E8003F591E42E8001CBCF1000F47
:1019C400F7D1DBB2BFF35B8F012BECD1837AC46018
:1019D40006FB035344609B6913B198473846E1E71B
:1019E400FFF718FFFAE700BF680400242DE9F04F61
:1019F4001F4685B080468946154604F035FF0446E7
:101A040087B1404604F035FF012808D02F4B6FF012
:101A14008502FFF727FD1A5005B0BDE8F08FB4FA30
:101A240084F464096A1C21464046D2B205F0AEFA39
:101A340006460028EAD045684FB1286801AB6968BA
:101A440003C32A7A01AD1A7007238DF8053009F112
:101A54000C07384605F09CF82A782946824228BFAC
:101A64000246384604F0D5FED6F80CA0BAF1000FB1
:101A74000AD1B9F81010B8F82E309942CCD9C91A45
:101A8400384604F0E1FEC7E7DAF8040083681B6B0C
:101A940013B9DAF800A0E9E7214698470028F8D0FE
:101AA400051F55F804BFBBF1000FF2D09BF800608E
:101AB400002EEED0384605F06BF8B042594634BFDC
:101AC40082B23246384604F0A4FEEAE70C00000075
:101AD4002DE9F04190F8283004460F4600F128061D
:101AE40003F01F03012B2FD0022B18D08BB394F8D3
:101AF4002910204604F060FF024678B330461E4D9C
:101B040005F04EF8002834D113693BB33A46314608
:101B1400204698470346FFF7A5FC2B5024E0818D0F
:101B2400C9B205F06DFB05460028E0D0304605F04B
:101B340037F8024668688368CAB99B6873B13A4645
:101B44003146BDE8F0411847818DC9B205F03FFB2D
:101B5400E9E790F8291005F076FBE4E7064B6FF00F
:101B64008502FFF77FFC1A500020BDE8F081DB6896
:101B7400E4E7D368C9E700BF0C0000002DE9F04F8B
:101B84000B7E93B004460D4633F08008164640F0B1
:101B940081847AB10846FFF701FF6B7EDF0703D427
:101BA4009E0711D52B7E7BB9204613B0BDE8F04FBC
:101BB40005F022B84A7E00F12809900708D5802B49
:101BC4000CD12846FFF7EAFE404613B0BDE8F08F7B
:101BD400910700F02384002B40F02084D2072FD5F6
:101BE4002B8A082B40F0FA83EA6829460020136800
:101BF400A3625368C9F8043004F0F9FD054610B136
:101C0400FFF7CCFEEFE0484604F0CAFFE28D70B95E
:101C1400B2B12946A06906F09FFB0146002800F0F6
:101C24002984204613B0BDE8F04F05F090BC3AB1CA
:101C34001146204605F086FC0546002800F01A846B
:101C440094F828800023FFF70DFCB14F18F0600FC3
:101C5400C351C8F3411307D0032B40F0BB816FF08D
:101C64008503FFF7FFFB37E0484604F099FF94F83B
:101C74002930002840F04E81013B0A2BEFD801A205
:101C840052F823F0FF1D0008631C00088B1E000897
:101C9400631C0008B51C0008631C0008631C0008D2
:101CA400631C0008251D0008631C0008871D00082C
:101CB400618D7F29D3D8A38D002BD0D1E38D002B48
:101CC400CDD118F01F0FCAD194F83030022B05D1B2
:101CD4004FF0FF33FFF7C6FB3B5076E0A069036982
:101CE40093F880301B0707D5C9B204F0BBFF8046C8
:101CF40028B1002D6CD167E7012384F8393094F8BA
:101D04003030012B0AD1638D43B984F83030FFF7AA
:101D1400A9FB3B58002B00F0858056E00123F4E733
:101D2400204604F0A1FD628D0146FF2A97D8E38D79
:101D3400002B94D194F82830D80690D194F8303000
:101D4400002BC5D02AB1D2B2204605F045F90028AF
:101D5400BED0618D94F838308B42D8D0C9B22046B9
:101D640005F041F980460028C3D1628D0521204643
:101D7400002A14BF0223012384F8303005F06CFCE0
:101D8400C5E708F01F08B8F1010F7FF468AFE38DD1
:101D9400002B7FF464AF628DFF2A3FF660AFA18D04
:101DA400FF293FF65CAF94F83030022B90D1D2B2C9
:101DB4002046C9B205F04BFB10F1020F804640F0FB
:101DC4000E81FFF74FFB47F8008065B14FF0000824
:101DD4002846FFF7E3FDB8F1000F7FF4F5AEFFF7F7
:101DE40041FB3B58F3B1484604F0DAFE0346A069D0
:101DF400002B00F04283802148E3E38D002B7FF425
:101E04002EAF94F83030002B3FF462AF012BA18D3C
:101E140002D100297FF45CAF18F01F080CD0B8F190
:101E2400020F16D0E38D002B40F0CB82204604F045
:101E3400CDFE0028D7D1B7E600297FF449AF638DE2
:101E4400012BEFD194F86C3061F3C30384F86C3048
:101E5400E8E7B4F82AA0BAF1000FE3D15FFA81F8F9
:101E64002046414605F0DFFB0346FFF7FBFA3B50F3
:101E7400013302D14FF0FF383BE75246414620463A
:101E840004F094FE43E7E38D002B7FF4E8AE628D0B
:101E9400A38D022A5FFA83FA11D108F01F085AEAC7
:101EA40008087FF4DCAE0122190AA06904F0B7FE29
:101EB40000287FF4D4AE012384F8393027E794F85E
:101EC400301000293FF404AF012902D1002B7FF424
:101ED400FFAE18F01F0811D0B8F1020FA2D1002AEA
:101EE400A0D15146204605F08AFB0346FFF7BAFA13
:101EF4003B500133BED001225146C0E7002B7FF492
:101F0400E7AE012A8ED194F86C3043F008039DE7C4
:101F14000C0000000A2B3FF6A2AE01A252F823F0F7
:101F2400511F0008631C0008631C0008631C0008A0
:101F3400631C0008631C0008CB1F0008631C000816
:101F440043230008631C00086D230008E38D022B63
:101F54007FF485AE94F83030002B3FF4B9AE012BFA
:101F6400A18D02D100297FF4B3AE18F01F0811D05F
:101F7400B8F1020F1CD04FF0000805F10C0A5046CE
:101F840004F006FEE38D984218D26FF00B03FFF7BE
:101F940069FAA1E600297FF49BAE94F86C304FEA0D
:101FA4009308C3F3001308F0020848EA0308E4E7BF
:101FB400C9B2204605F046FB8046DEE7414650465E
:101FC40004F038FCA3E6628D18F01F0F4FEA1223C9
:101FD400D2B209D029462046FFF77AFD8046B8F1EF
:101FE400000F7FF486AE92E6013B0E2B3FF637AE30
:101FF40001A151F823F000BF392000087520000822
:1020040085200008631C0008631C0008C92100081F
:1020140081200008631C0008631C0008631C00087E
:10202400631C0008631C0008631C0008631C000890
:102034005D22000805F10C08B4F82EA0404604F017
:10204400A7FD8346204604F00FFC20B101287FF44D
:1020540006AE616F00E0216F002900F01F82DA45AF
:102064000A7828BFDA46524528BF524640462FE038
:10207400002329462046FFF7B9FC48E60123F8E788
:102084000321204604F0D8FC824600283FF4E7AD43
:1020940004F079FDB4F82EB09AF81530D8B99AF84E
:1020A40014808DF829308DF82880DAF8103005F185
:1020B4000C0A1B885046ADF82A3004F069FDC3456C
:1020C4005A460AA928BF4246824228BF02465046C1
:1020D40004F09FFB1BE6DAF808204FF000088DF8A7
:1020E4001530BF4B8DF814801340BE4A934258D12B
:1020F400102106A801F0C6F9021EFFF6B0AD0AA928
:10210400102A0DF1180CDFF8E0E2084628BF10226F
:10211400424501F1020133D89200034602325FFACC
:1021240082F88DF8148005F10C0A0293504604F0ED
:102134002FFDD845424605A928BF5A46904228BFDC
:102144001046022883468046504628BF4FF0020BB3
:10215400A8EB0B085A4604F05CFB4FEA58030193C2
:10216400029B9B4603EB5802934521D118F0010FC3
:102174003FF4CDAD019A5046995C04F053FBC6E59B
:102184001CF8013B08F101084FEA131A03F00F038E
:102194001EF80AA01EF8033001F802AC01F8013C55
:1021A400B6E79AF81480DAF810308DF81480BAE79C
:1021B4001BF8011B5046CDE9022304F03BFBDDE98B
:1021C4000223D1E7204604F04FFBD4E91C83002806
:1021D40008BF984600232046CDF82A30CDF82E308B
:1021E4000A238DF8283006238DF8293004F041FBAA
:1021F400012805D06FF08503FFF734F93B5086E5DD
:10220400B8F1000F00F04A81B8F80230ADF82A3076
:1022140098F804308DF82C3098F805308DF82D306E
:1022240098F806308DF82E3098F807308DF82F3056
:1022340098F8113005F10C0840468DF8303004F060
:10224400A7FCE28D9DF828300AA99A4228BF1A46B5
:10225400824228BF024609E7204604F005FB18B174
:102264000128C7D1636F00E0236F002B00F01681B3
:102274005B88B3F5007FBDD95C4B04F14C0B0A932A
:1022840000238DF82C30E36C9B4508BF0023BDF878
:102294002A1093B15A7D0F2A08D11A7D0A44ADF849
:1022A4002A209DF82C2001328DF82C20226D934297
:1022B40001D01B68EBE7BDF82A1005F10C0A019167
:1022C400504604F065FCB4F82E800199884528BF77
:1022D40088460AA9804528BF804650464246052ABA
:1022E40028BF0522019204F094FA019AB8EB02087F
:1022F4003FF40DADE36C5B453FF409AD002B3FF4B7
:1023040006AD5A7D0F2A14D11A7D504619694245EB
:10231400019328BF424604F07CFA019B1A7D424592
:1023240094BFA8EB0208A8EB0808B8F1000F3FF42B
:10233400EEAC226D9A423FF4EAAC1B68DEE794F8F7
:102344003030002B3FF4C4ACE38D012B7FF487AC19
:1023540005F10C08404604F01BFC00283FF415AEC0
:1023640094F83810404608E708F01F08B8F1010F48
:102374007FF4AEAC204604F01DFE00283FF4A8AC68
:10238400B4F82CA0BAF1FF0F3FF669AC43681B798F
:102394005345FFF464AC5FFA8AF30F2B3FF65FAC4E
:1023A400E38D012B7FF45BAC05F10C08404604F08F
:1023B400EFFB00283FF4E9AD04EB0A0393F83A106D
:1023C400D0E7484604F0ECFB18B92846FFF7E6FAD4
:1023D4002CE52946204605F0BAF848B128460FE412
:1023E40000FF02000003020072B00008050F0500A0
:1023F400A069036993F8801011F004017FF4D4AB51
:1024040005F0BEFF054600283FF4EDAC014620462A
:1024140005F09DF800283FF4C7ABDFE752077FF5CE
:10242400E2AC002B3FF4CDAB2846FFF7B7FA94F8A3
:102434003930002B3FF4C8AB94F82930052B05D173
:10244400618DA069C9B204F00DFC064694F82930E8
:10245400032B09D1638D022B06D1A18D0022A06923
:10246400090A04F0DCFB06460023B04684F8393040
:10247400FFF7AABB6FF00B06B5E4E38D002B3FF426
:10248400BAAC16F10C0118BF0121C90105F07DFE9B
:10249400FFF78ABB6FF00408FFF796BB6FF01508CF
:1024A40027E400BF0B78062B10B414D10369D3F8CA
:1024B4009C20EFF31184102383F31288BFF36F8FF2
:1024C40000204B681860506A58B9C2E9083384F395
:1024D4001188BFF36F8F00220023034810BC07F05C
:1024E40016BB03605362F2E7300400242DE9FF4178
:1024F40010264FF0FF334FF0FF3201A95C4802F081
:102504005DFA039B1B69D3F89C40236A93B1EFF3F4
:10251400118286F31288BFF36F8F216A29B1606A32
:102524000B688142236208BF636282F31188BFF3A0
:102534006F8FC9B99DF80430062BDAD0072BD8D891
:1025440001A252F823F000BF9F250008932500083C
:10255400BF250008A5250008E3250008D9250008A3
:10256400F72400086D2600080B7E2046D1F81E20B3
:102574005D0609D1FFF702FB02460028C5D00721FA
:10258400204605F069F8C0E704F031FEF4E70022C4
:102594000121204605F060F8ABE700221146F8E778
:1025A40094F86C3001A9204643F0040384F86C309D
:1025B40004F080FB00220321EBE794F86C3001A9BE
:1025C400204623F0040384F86C3004F073FB0022EB
:1025D4000221DEE701A9204604F06CFB89E794F8A8
:1025E4006C30A76923F0040384F86C30D7F80880B2
:1025F4003B69BFF35B8FD3F8A030BFF35B8F9A07BF
:102604002FD5D8F83C3038469847D8F824300021E4
:10261400384698470546D8F8403038469847ADB90B
:102624002946204604F0DFFC054678B9A06905F088
:10263400C6FE831E84F830505842584194F86C30DA
:1026440023F0680343EA401384F86C300022042129
:10265400204605F001F8002D3FF44BAF2A46072130
:1026640097E74FF0FF35F1E7029A062191E700BFA3
:102674003004002430B589B00022002300241E4910
:102684001E480094CDE906236FF007034FF48062DF
:10269400CDE90334CDE90144194B02F0A3FD1949F6
:1026A400164807F06AFB184B18498B4207D3184B9E
:1026B400002018498B4210D3002009B030BD03F12B
:1026C4001402BFF35B8F52E8000F42E80045002D6F
:1026D400F9D11833BFF35B8FE7E703F11402BFF3BB
:1026E4005B8F52E8004F42E80005002DF9D1183302
:1026F400BFF35B8FDEE700BF0016002460090024EF
:10270400F1240008BDAF00082C0500244405002472
:10271400440500245C05002438B5024605460949F1
:10272400806905F0B2FE044648B985F838002846A9
:1027340004F0F5FB044610B1A86905F0D9FE204663
:1027440038BD00BFA924000870B5054681B1012930
:102754000BD10E4C0E4E16E0636828461968FDF73F
:10276400BFFF18B11834B442F6D30024204670BD1C
:10277400084C094EF7E7636828461968FDF7B0FF6F
:102784000028F3D01834B442F5D3EEE7440500240E
:102794005C0500242C0500244405002470B506467D
:1027A400EFF31181102383F31288BFF36F8F1B4D56
:1027B4002A6881F31188BFF36F8F526892F86C20F6
:1027C400D20705D40A220023BDE8704002F082BC7F
:1027D400EFF3118283F31288BFF36F8F2C682CB14F
:1027E400696823688C422B6008BF6B6082F3118890
:1027F400BFF36F8F44B1606804F10801C36998475F
:102804002146074807F025F92B6833B130460022EA
:102814000023BDE8704002F029BC70BDBC12002446
:102824000004002430B585B0054600231548CDE9E1
:102834000012002203A902F02FF80246E8B9039B14
:10284400DDE900015D60083383E80300EFF31180E4
:10285400102383F31288BFF36F8F039B1A600A4A15
:10286400516861B9C2E9003380F31188BFF36F8FF7
:1028740000220023054802F0F9FB05B030BD0B60CF
:102884005360F1E700040024BC120024000000247B
:1028940038B54B780469202B4568206908D0222B71
:1028A40019D0124B6FF08502FEF7DCFD1A5010E0D0
:1028B400CB88072BF5D1D3681A6842609A880281C5
:1028C4009B79837204F0EDFE22460821284604F029
:1028D400D1FE002038BD4B880921C3F34002838117
:1028E40003F00103027622464376EFE70C00000072
:1028F40008B513464A78212A14D133B90C4B6FF02A
:102904000B02FEF7AFFD1A500AE0CA88016903F111
:102914000C00072A096928BF0722043103F079FF54
:10292400002008BD024B6FF08502FEF79BFDEAE72D
:102934000C00000073B5102504698DF80710EFF33F
:10294400118685F31288BFF36F8F01220DF1070101
:10295400E06B03F042FE86F31188BFF36F8F01280A
:1029640010D007F004FAA8B10E4B0122BFF35B8F1D
:1029740053E8001F002903D143E800200028F7D1C1
:10298400BFF35B8F0A22002304F1480002F06EFBC0
:1029940002B070BDA37E002BE6D000210A2007F010
:1029A400B0FACCE7C412002438B5056900240E49F6
:1029B400EB6B05F14800C3E90144DC606B6BC3E9D0
:1029C4000144DC6007F0C7F905F17800074907F016
:1029D40096F9074905F1240007F091F9284604F017
:1029E40060FE204638BD00BFF9290008CD2A000842
:1029F400C57900082DE9F04750F8483C00F140063D
:102A0400074600215B683046D3F8009004F097FE37
:102A1400002855D00121304604F091FE804600285C
:102A24004ED1BFF35B8F56E8003F43F0200246E8E7
:102A340000210029F7D19B06BFF35B8F40D44846A1
:102A440004F0FAFE0022054600231E4803F0C4FEEB
:102A5400044650B93046052104F005FF38460A22E1
:102A64000023BDE8F04702F001BB82460576428AA6
:102A74005AF80C1F57F80C0C03F0CFFD054601461D
:102A8400504603F0C0FE5DB1D9F8040004F0E2FE44
:102A9400B5FBF0F303FB1055B5FA85F84FEA581867
:102AA4002146484607F82D8C04F08EFD40B120469F
:102AB400FEF774FF30460521BDE8F04704F0D3BEAD
:102AC400BDE8F0876804002470B550F8782C00F154
:102AD40010040346002152682046156804F02FFEB6
:102AE400002841D00121204604F029FE00283BD1D2
:102AF40053F8442C68689388918916695B1A9BB2D1
:102B0400F61A04F0A7FEB0422ED8BFF35B8F54E848
:102B1400003F43F0100244E800210029F7D1DB060E
:102B2400BFF35B8F20D4284604F078FE00220646CB
:102B340000230E4803F050FE0446A8B106766868E8
:102B440004F088FE638A984203D2686804F082FE27
:102B540083B221462846638204F036FD20B1204624
:102B6400BDE87040FEF71ABF70BD00BF68040024C2
:102B740007B5084A92E80300CDE9000106488268D7
:102B8400126822B16946904703B05DF804FB6FF008
:102B94005700F9E784A7000850A20008044B03EB90
:102BA40040000023013320F8022B8B42FADB7047EC
:102BB400300300242DE9F041054600260F4F4FF065
:102BC4000108F4B26B78A34201D8BDE8F0812B78F8
:102BD4001C44204604F0E5FF68B1204604F0FDFFE4
:102BE40057F834303BB107EBC40204F01F045168BA
:102BF40008FA04F098470136E3E700BFC81200243E
:102C0400034680B1B0FA80F2C2F11F02D2B2074982
:102C140031F912004FF0B042D2F880100B43C2F8E1
:102C24008030FEF7E9BAFF22F1E700BF3003002449
:102C340030B5B0B1B0FA80F3C3F11F03DBB20B4877
:102C440050F833408C4204D100EBC3056D689542C3
:102C540005D044B940F8331000EBC30042600020B3
:102C640030BDFF23EBE76FF00F00F9E7C812002433
:102C740060B1B0FA80F3C3F11F03DBB2044A002150
:102C840042F8331002EBC30251607047FF23F5E7AB
:102C9400C812002400F003020F2304329200934070
:102CA400094A43EA900000F00303023352F8232058
:102CB400030C02EA104293FAA3F008B1B0FA80F0D0
:102CC40022FA00F0704700BF00040058F8B5876886
:102CD400144605460E46FB6B984721460022002306
:102CE4000548FEF7DDFD044600B1067628463B6C38
:102CF40098472046F8BD00BF8C04002438B503690A
:102D040004464568D3F8A40006F055F96468E06900
:102D140078B90B48616983685B687BB900F076F920
:102D24002869FEF78BFA10B12869FEF773FA0020C0
:102D340038BD436898470028EBD0EFE79847EDE7A4
:102D440050A200082DE9F341036906464768D3F809
:102D5400A45000F02FF9044668B976682A4896F81A
:102D64004A30D0F80880012B09D8D8F800307169AE
:102D740083B96FF00404204602B0BDE8F0817169A4
:102D8400D8F818300831002BF3D022469847002891
:102D9400EBD0EEE71C48984704460028E9D196F8A2
:102DA4004A30012B0ED97169D8F80C300831002B48
:102DB400DFD001AA144898470028DAD1134B019AAE
:102DC4009A42D6D1F069D0B940F2E44200212846B3
:102DD40007F05DF93B6828462B607B682B71402324
:102DE4002B723B6B6B727B6BEB7106F076F80028F1
:102DF400BFD1284606F014F90028BCD0B9E703680F
:102E040098470028E0DAB4E750A20008006CDC021E
:102E14002DE9F043D0F810808BB005464468D8F80B
:102E2400A46000274FF040096368BB4250D80027D4
:102E34004FF040096368BB4278D898F8803023F09B
:102E44006A0343F06A0388F88030636B2BB998F8FF
:102E5400803043F0010388F8803006F5B36106F54D
:102E6400AE60C6F8E4540823042206F59E6606F014
:102E74003FFED4E910124FF000084FF000096FF044
:102E84000703012000270095CDE90330CDE9068929
:102E9400474B3046CDE9017702F0A4F92968304662
:102EA40006F06BFFE368984709AA3946A06905F064
:102EB400DDFF002865DB099B3A461979186805F09F
:102EC400E7FF00285DDBA06A00285FD100205AE0FC
:102ED400E36B17F0800F07F07F004FEA471103EB15
:102EE40047139A7C1F760CBF42F0400242F0200246
:102EF4009A749A7C50B942F001029A74E36B5FB100
:102F0400E36BB4F848200B441A8207E022F00E0267
:102F140042F00E029A74F3E7A3F81090E36B28468C
:102F2400194404F0A3FF70BB01377DE7A36B67F07E
:102F34007F0278064FEA471103EB47131A769A7C0F
:102F440042F020029A740BD1D2B242F001029A7478
:102F5400A36B67B1A36BB4F848200B441A8208E052
:102F64009A7C22F00E0242F00E029A74F2E7A3F861
:102F74001090A36B2846194404F078FF18B9013760
:102F840058E7831C9FD00BB0BDE8F083283406F0CB
:102F9400C2FC48B14FF4B011204605F0D4FA002821
:102FA40094D06FF00400EEE76FF01500EBE700BF7C
:102FB4005D89000838B54FF0FF324FF0FF331048F9
:102FC40001F086FE0546C8B90E4A1368591C116003
:102FD4008BB90D4CE36843F08073E360E36823F03E
:102FE4000073E360E3685B0105D400214FF47A7059
:102FF40006F087FFF6E7024801F036FE284638BDA2
:1030040058040024881500240048025810B54FF0D5
:10301400FF324FF0FF330A4801F05AFE044660B90C
:10302400084A1368013B136023B9074AD36823F0A5
:103034008073D360024801F017FE204610BD00BF24
:10304400580400248815002400480258044A816862
:103054000020D2F8603123EA0103C2F860317047DE
:1030640000440258074A82B083680020D2F86011F5
:103074001943C2F86011D2F8602113400193019BF7
:1030840002B07047004402580B88C3F30B03132BA0
:1030940038D813B96FF085007047013B122BF9D86B
:1030A40001A050F823F000BF373100089930000820
:1030B4002D310008F9300008333100089930000838
:1030C40099300008373100083731000837310008DB
:1030D40099300008993000089930000899300008A8
:1030E400993000089930000899300008253100080B
:1030F40025310008134B13600968B1F5805F1AD2BB
:1031040000207047D42B0BD003F62873C3F30B03B2
:103114001C2BBFD84FF0113020FA03F3DB07B9D5CD
:10312400094B1B685B08E6E74FF4FA43E3E7074BF8
:10313400E1E7074BDFE7C1F313310131B3FBF1F3EF
:103144001360DDE740787D011C030024006CDC0281
:103154000076B010714B13B5D3F83C2142F0040251
:10316400C3F83C21D3F83C2102F004020192019AF5
:103174001A6822F480221A601A6842F480321A60B3
:103184001A689403FCD55A6F42F001025A67634BE4
:103194005A6F9007FCD51A6842F480521A601A6874
:1031A4009104FCD5002300935D4B9A6942F440429C
:1031B4009A619A6902F440420092009A9A699204D0
:1031C400FCD5564B1A691A6902F03802182A16D12E
:1031D4001A68540706D41A6842F001021A601A6881
:1031E4005007FCD54D4B1A6922F007021A611A697F
:1031F40012F0380FFBD19A6922F00F029A61474C02
:10320400236823F080732360236823F080632360A2
:10321400236823F080532360A36A23F0030343F05D
:103224000203A362A36A23F47C7343F05003A362F2
:10323400E36A23F00C0343F00803E362E36A23F038
:103244000203E362236B6FF3080343F06F0323630A
:10325400E36A23F00103E362236B23F47E4343F424
:1032640000732363E36A43F48033E362236B23F440
:10327400FE0343F480332363E36A43F40033E362DD
:10328400236B23F0FE4343F080732363E36A43F428
:103294008023E362236843F08073236023689901E9
:1032A400FCD5204801F0E4F8A3691C4A23F47063B8
:1032B400A361A36923F00F0343F00803A361E36947
:1032C40023F07003E361E36923F4E063E361A3693A
:1032D40023F07003A361236A23F07003236223693C
:1032E40023F0070343F003032361136903F0380356
:1032F400182BFAD10A4B9A6942F440429A619A69AE
:103304009204FCD5054A0020136923F40043136199
:10331400054B064A1A6002B010BD00BF00440258B3
:1033240000480258003B58081C0300240076B010E3
:10333400132808D8054BC34013F0010F0CBF6FF0DE
:103344008500002070476FF0850070473A070C0035
:1033540008B5074806F0DFFA38B10648FEF73CFA2C
:103364000448FDF75DFB002008BD6FF01200FBE789
:10337400BCA300087D3300080A2838B50446074D6D
:1033840004D1AB680D2128465B689847AB68E1B26D
:1033940002485B689847204638BD00BFBCA30008BC
:1033A4002DE9F843D0F80490904607460D46D9F825
:1033B40008001E4604F074FCB8F5001F044616D13C
:1033C400D9F808402846FFF765FC84420CD1294609
:1033D40004F066FC044604F068FC2046FFF748FC51
:1033E4000021204604F06AFC0020BDE8F883B8F50B
:1033F400800F20D0B6F1806F19D0B6F1C06F18D00D
:10340400B6F1007F1AD102263A460F492046FFF74B
:103414000FFCB0B9D9F80810284604F078FC20460F
:10342400314604F04BFC2046FFF7EAFBDCE70126BB
:10343400EAE70326E8E76FF08500D6E76FF01500AA
:10344400D3E76FF00F00D0E7458E000810B50B4CA2
:10345400204606F060FA68B122692046A168136824
:1034640043F480631360064A0B680A21984700EA14
:10347400E07010BD6FF01200FBE700BF14A300085A
:10348400010006001FB50C4B0C29D3F8082828BFEF
:103494000C2112BA0C460192D3F8042812BA0292F3
:1034A4000A46D3F8003801A91BBA039306F0E1FDDC
:1034B400204604B010BD00BF00F0FF084FF0E02329
:1034C4000D4A9969126818699B69002908BF114659
:1034D400002B08BF134610F4803F084801D19942DD
:1034E40005D20168114401604FF0E02109690068C8
:1034F4001044C01A704700BF941500248C15002492
:10350400094B1022002083F8232046F66052074B13
:103514001A6046F65F52064B18604FF0E0235A617A
:10352400072298611A61704700ED00E094150024A9
:103534008C150024684620F007018D46F1B505F08E
:10354400C3FC0446FFF7BAFF1248134A0027036876
:103554000760D2E900515B19104D41F10001C2E945
:103564000031D5E9006146F660529B1BB3FBF2F0D3
:1035740002FB00F39B1941F10001C5E90031084B3E
:1035840021461F6002F0C8FAFDF7F8FEBDE8F140DD
:10359400854670478C150024A00F0024980F002442
:1035A400901500242DE9F0418046344E69B1B0F104
:1035B400FF3F0AD14FF0E022136923F001031361A6
:1035C4004FF07F433360BDE8F081FFF777FF4FF0A2
:1035D400E0232B499C692B4A3568D1E90037C3188D
:1035E4004FF0000047F10007B8F1FF3F1060C1E958
:1035F400003725D02448D0E90020B3EB020C67EB58
:103604000007002F37DB214B46F6605E4FEAE87077
:103614001B6813EB080340F10000A3FB0E320EFB02
:103624000022B3EB0C0340F2D76062EB0702834243
:1036340072F100001FDBB3F1807F72F1000201DB45
:103644006FF07F4333604FF0E022013B9669536192
:103654000023B44293614FF000720D4B5A6036BFA1
:103664006319A31B9B1BD1E900021B1842F1000242
:10367400C1E90032A7E740F2D663E3E794150024DA
:10368400A00F00248C150024980F0024901500240A
:1036940000ED00E0074B10B51C68074B1B68E41AEB
:1036A400FFF70CFF46F660532044B0FBF3F0034BE6
:1036B400186010BDA00F0024980F0024901500245A
:1036C40038B505F001FC054B04461D68FFF7F6FE0E
:1036D40084F31188BFF36F8F284438BDA00F0024F2
:1036E4002DE9F0414D4C236903F03803102B00F011
:1036F4009080182B0DD0002B40F08D802368484813
:1037040013F0200F03D02368C3F3C103D840BDE8EE
:10371400F081A76AA36AD4F82C8013F47C7FC3F3E6
:103724000510666BF3D0FCF7F9FDC6F3CC0605462D
:1037340008F0010007F003077043FCF7EFFD4FF0BA
:103744006451FCF743FE012F064652D0022F40D0AD
:10375400002F4ED123689B0629D523683048C3F334
:10376400C103276BD840FCF7D9FD2946FCF7E2FEDC
:103774000446C7F30800FCF7D1FD3146FCF71EFDF3
:103784004FF07E51FCF71AFD01462046FCF71EFE61
:10379400224B0446186BC0F346200130FCF7BEFDF3
:1037A40001462046FCF7C6FEFCF760FFAFE7206B3E
:1037B400C0F30800FCF7B2FD3146FCF7FFFC4FF004
:1037C4007E51FCF7FBFC294604461648FCF7B2FE82
:1037D400DAE7206BC0F30800FCF7A0FD3146FCF7E4
:1037E400EDFC4FF07E51FCF7E9FC294604460E48F7
:1037F400ECE7206BC0F30800FCF790FD3146FCF7C2
:10380400DDFC4FF07E51FCF7D9FC294604460748FD
:10381400DCE707487BE7074879E700BF0044025824
:103824000090D0030024744C20BCBE4B0024744A86
:1038340040787D0100093D0008B5FFF751FF0B4AB0
:103844000B4993699269C3F3032302F00F02CB5C23
:1038540003F01F0320FA03F3885C064A00F01F00FC
:1038640023FA00F01060044A136008BD00440258B3
:1038740091B00008180300241C0300242DE9F04F24
:10388400066889B00446304605F0F8FF0390002826
:1038940040F06D81206805F0C3FF002800F06781C7
:1038A400D6F8083806F500652068C3F30D23C4F87C
:1038B400D43405F0B5FF870704D52268536903F0B3
:1038C40002035361206805F0ABFFC0062DD52268C2
:1038D400936923F010039361D6F8208008F4F01361
:1038E40008F00F07B3F5802F40F0448147F6F073DA
:1038F40018EA030F14D02423C8F30A19304603FB33
:1039040007474A46D7F8601205F0C7FED7F8603279
:103914004B44C7F86032D7F868324B44C7F8683272
:103924002268936943F010039361206805F078FFDF
:10393400010300F13281206805F072FF42030CD5C7
:10394400274606F5106B4FF0000A206805F074FF57
:103954000490049B002B40F0EA81206805F060FF8E
:10396400002813DA6B6823F001036B6094F8CC34FD
:10397400012B40F084820021204684F8CC1405F009
:10398400F0FC2268536903F000435361206805F09A
:1039940047FF01050AD5AB68DA0702D5204605F0D2
:1039A400CBF82268536903F400635361206805F07F
:1039B40037FF030115D52268536903F0006353618F
:1039C40094F8CC34002B40F05E8201212368204619
:1039D40084F8CC145B6DC3F38303C4F8D03405F0CE
:1039E400C0FC206805F01CFFC70433D56B681021A8
:1039F40023F001036B60206805F05FFD06F510639A
:103A04004FF67F3122790398824200F24082EB69BB
:103A140043F00113EB61E37B002B00F05782D5F8F0
:103A2400843043F00B03C5F884306B6C43F00B0314
:103A34006B64D6F8003804F29C4223F4FE63C6F8A3
:103A44000038A179206800F0EDFC2268536903F482
:103A540080535361206805F0E3FE800416D5206886
:103A640005F010FF206805F073FD2768E071FFF78B
:103A7400E3FEE2790146384600F066FA204605F096
:103A840023F82268536903F400535361206805F056
:103A9400C7FE010707D5204605F06CF82268536974
:103AA40003F008035361206805F0BAFE020600F132
:103AB4001882206805F0B4FEC3020CD5A04606F5B2
:103AC400126901272379BB4200F2248222685369D8
:103AD40003F480135361206805F0A2FE870229D500
:103AE400234606F532610122207990421DD993F8CC
:103AF4007C720868012F40F02382002880F2208223
:103B0400D4F8D4C48CEA1040C00700F1198283F8B9
:103B14007B72B06940F08000B0617069000600F10A
:103B24000F826B6843F400736B602268536903F47B
:103B340000135361206805F073FE410007D5204649
:103B440004F0EEFF2268536903F080435361206858
:103B540005F066FE42070AD523685D686B0702D547
:103B6400204604F0E3FF226853682B43536009B0F6
:103B7400BDE8F08FB3F5402F7FF4D2AE082204F2F3
:103B84009C413046C8F30A1805F087FD242303FB43
:103B94000747D7F868324344C0E606F53068A246C2
:103BA4000027206805F040FE0490049B002B3FF49E
:103BB400C2AE049BDB0779D55FFA87FB20685946C0
:103BC40005F042FE10F0010F81461FD00123C8F812
:103BD4000830206894F806C000F53063016CBCF12D
:103BE400010F03EB47139A6840F08B8012F0080F23
:103BF40007D0B448814209D9120407D54FF40042D2
:103C040003E012F0200F5AD020229A6019F0080F16
:103C140021D00823AB49C8F8083023681A6C03F58F
:103C240030638A4203EB4713986804D9010402D530
:103C34004FF4004098602046059204F0C4FF059AB2
:103C4400A0498A4207D9A179012904D104F29C42EE
:103C5400206800F0E7FB19F0100F02D01023C8F819
:103C6400083019F0020F14D073691B0603D56B6872
:103C740043F480636B609AF85732012B06D100231A
:103C8400594620468AF8573205F0EEF90223C8F85F
:103C9400083019F0200F02D02023C8F8083019F496
:103CA400005F03D04FF40053C8F80830049B013779
:103CB40008F120080AF1240A5B08049375E7DFF889
:103CC40004C2614501D9120498D41A69DAF874322D
:103CD400C2F312029B1ACAF868326FB9D4F864228C
:103CE4002AB904F29C42012100F09CFB04E0D4F8C0
:103CF40060221A44C4F860225946204604F03BFF6F
:103D040084E7DFF8C4C1614507D111043FF576AFFC
:103D14009006F1D520229A60EEE7002FECD1D4F87A
:103D24006432002BE8D104F29C423946DCE7049B60
:103D3400D80740F19B805FFA8AF3206819460793FD
:103D440005F08BFD10F0010F804620D001210AF010
:103D54000F026B6B01FA02F223EA02036B63CBF8E6
:103D64000810A17901290DD1D7E9072313443B6237
:103D7400BAF1000F06D1636A23B904F29C422068A9
:103D840000F050FB5FFA8AF1204604F009FF18F0B6
:103D9400080F02D00823CBF8083018F0100F02D017
:103DA4001023CBF8083018F0400F02D04023CBF892
:103DB400083018F0020F10D05146304605F07DFB54
:103DC400FB7D012B06D100235FFA8AF12046FB75A7
:103DD40005F04BF90223CBF8083018F0800F45D0DA
:103DE400D7E909329A4241D8A3EB0208FB6921685A
:103DF4009845059128BF984601F5106308F103081A
:103E040003EB4A134FEA98080693069B996989B213
:103E14004145D7E9093227D393420BD8059B0AF0D1
:103E24000F000121D3F83428814022EA0102C3F8AB
:103E340034281BE0A3EB0209FB69079A994505980E
:103E440028BF9946A37900931FFA89F3396A09F1C7
:103E5400030805F00FFC3B6A4FEA98084B443B62A9
:103E6400BB6A4B44BB62D0E79342D7D9049B0AF1A7
:103E7400010A24370BF1200B5B08049369E5204603
:103E840004F069FE7DE5204604F056FEA9E599603C
:103E9400203353F8202C22F4001243F8202CC3F8CA
:103EA400E811D3F8E02122F40012C3F8E021D3F89A
:103EB400E02142F00062C3F8E021039A0132039248
:103EC400A0E500BF0A30544F0A31544F6B6943F4E4
:103ED400005343F02B036B612B6943F00B032B61FD
:103EE400A7E5B369012704F257284FF0240923F00A
:103EF4008003B3612379BB427FF6DBAD09FB07F393
:103F040018F80330012B03D1F9B2204605F0C6F9A5
:103F14000137EFE798F83C30D9F80020012B09D19C
:103F2400002A07DA67F07F01204688F83B30C9B2DF
:103F340005F0B4F9013708F1240809F12009C1E5B5
:103F4400013224332031CFE5022A4AD1274B284AB3
:103F54000B44934239D9274B274A0B44934236D911
:103F6400A1F57403254AA3F51053934231D9A1F165
:103F74008373234AA3F5E74393422CD3214B224A6C
:103F84000B44934229D9214B214A0B44934226D313
:103F9400204B214A0B44934223D3A1F1B7731F4A08
:103FA400A3F5585393421ED31D4B1E4A0B44934210
:103FB4002CBF06230723C26822F47052C260C26871
:103FC40042EA8323C360002070470F23F3E70E23E4
:103FD400F1E70D23EFE70C23EDE70B23EBE70A23CF
:103FE400E9E70923E7E70823E5E700BF405327FF94
:103FF400FF340C00401E1BFF3F420F007F4F120096
:1040040020D6130060B6E5FE5FE3160000D3CEFEB3
:1040140040771B00C05BB3FEC091210020753800BF
:10402400E05459FEE09C410084B02DE9F843044675
:1040340009A880E80E0000239DF824609DF82E5006
:10404400194603F14002013304EB82020F2B516045
:10405400F7D104F50067002D6CD17B6843F00203AF
:104064007B60A36B23F40013A363236843F0400332
:104074002360236843F0800323600023C4F8003ED8
:104084009DF82930012B5CD19DF82710002956D1C9
:1040940020464FF67F3805F054FA1021204605F0EB
:1040A4000CFA0146204605F02BFA0843002304F5D8
:1040B4001062C0B24FF0904C19464FF0006E0038B9
:1040C4003B617B6118BF0120FB619E423BD800220B
:1040D40004F530634FF0904C4FF0006E11464FF6EC
:1040E4007F38964242D83B6923F480733B610023B6
:1040F400A3616FF0804363619DF826301BB9A36907
:1041040043F01003A361A269224B1343A3619DF8FA
:104114002A301BB1A36943F00803A361012D05D123
:10412400A36943F0804343F00403A361BDE8F8436B
:1041340004B07047A36B43F40013A3639DE71946CF
:10414400A6E70321A4E7D2F80090B9F1000F0BDA37
:104154003BB9C2F800E011610133C2F80880203293
:10416400B3E7C2F800C0F6E71160F4E7D3F80090B3
:10417400B9F1000F0BDA3AB9C3F800E01961013262
:10418400C3F808802033ACE7C3F800C0F6E7196031
:10419400F4E700BF00383C8030B54A780B78012A38
:1041A40000EB431300F5006029D1D3F80029002A5D
:1041B4000BDAD3F8002942F00062C3F80029D3F8DF
:1041C400002942F08042C3F800290A780124C56B13
:1041D40002F00F0204FA02F225EA0202C26309782D
:1041E400C26901F00F018C4022EA0402C261184A3C
:1041F400D3F800190A40C3F80029002030BDD3F8D1
:10420400002B002A0BDAD3F8002B42F00062C3F82B
:10421400002BD3F8002B42F08042C3F8002B0A781D
:104224000124C56B02F00F0204FA02F225EA0242ED
:10423400C2630978C26901F00F018C4022EA04428A
:10424400C261044AD3F8001B0A40C3F8002BD4E728
:10425400007833EC0078F3EFF7B54B7891F800C0B1
:10426400012B6D4D00EB4C146C4E40F089800F69AE
:1042740004F510633FBB1F693D401D611D6945F492
:1042840000251D611D693540012A1D614DD1CA6992
:1042940002B15A610B79012B0CD1D0F8083813F410
:1042A400807FD4F800390CBF43F0005343F08053AF
:1042B400C4F80039D4F8003943F00443C4F8003991
:1042C400002003B0F0BD1F693E401E611E693540E9
:1042D4001D610D698E68BCF1000F0CD1B54288BF19
:1042E4000E611D6945F400251D610D691E69C5F344
:1042F40012053543C8E73544494FD3F810C0013D92
:10430400B5FBF6F5AEB207EAC54545EA0C051D61F5
:104314000D79012DE9D11D6925F0C0451D61750791
:104324001F6905F0C0453D43DEE7D4F8003943F08A
:104334000443C4F800390B79012B0DD00B69002B11
:10434400BED00A780123D0F8344802F00F0293401B
:104354002343C0F83438B3E7D0F8083813F4807F27
:10436400D4F800390CBF43F0005343F08053C4F831
:10437400003900920B8A0A78C96805F07BF99FE737
:10438400D4F8107B04F530633E401E611E6935404D
:104394001D610E698D68BCF1000F27D106B10D6156
:1043A4000D621E69C5F3120535431D611D6945F48F
:1043B4000025012A1D6102D1CA6802B15A610B7934
:1043C400012B0CD1D0F8083813F4807FD4F8003BCB
:1043D4000CBF43F0005343F08053C4F8003BD4F8BF
:1043E400003B43F00443C4F8003B69E7002ED8D0F7
:1043F4002E44013EB6FBF5F6B6B275430D62084D88
:104404001F6905EAC6453D431D610D6A1E69C5F372
:1044140012053543CDE700BFFFFF07E00000F8FFBA
:104424000000F81F30B5114C00F53063056CA5424F
:1044340003D9D0F8004B002C16DB002401291C61A1
:104444001C6944F400241C611C6944F018041C61B8
:104454001C6944F0C0441C6106D15A61D0F8003B89
:1044640043F08023C0F8003B002030BD0A30544F95
:1044740000287FD0414B9A6902F44042B2F5404F84
:104484001BD13F4B3F4A0344934258D33E4A3F4BD0
:1044940002449A4266D33E4A02449A4264D33D4A55
:1044A40002449A4262D33C4A02449A4260D33B4A51
:1044B40002449A421ED2012342E09A6902F4404225
:1044C400B2F5004F1AD1364B364A0344934249D3CE
:1044D400354A364B02449A4246D9354A02449A42F6
:1044E40044D9344A02449A4242D9334A02449A4251
:1044F400E1D9013398423DD8002321E09B6903F4BC
:104504004043B3F5804F0FD12C4B2D4A03449342C3
:104514002AD32C4A2C4B02449A4227D92B4A0244D0
:104524009A4225D92A4AE1E72A4A2B4B02449A4265
:104534001CD31A4A02449A421AD3284AB8E70623DB
:1045440027490A6822F00F021A430A600A6802F037
:104554000F02934210D0086800F00F00C01A18BF71
:10456400012070470523EBE70423E9E70323E7E78A
:104574000223E5E7012070470020704700480258F5
:10458400FFAD43F00024F400FF10E3F200639F0248
:10459400FF7382F5FFD621F8FF39C1FAFF9C60FD55
:1045A4007FA77BF3C0E1E400FF85FCF57FDE80029A
:1045B4007F647DF8FF42FEFA7F217FFDFFCDE4F7A3
:1045C40000366E017F9AEBF97FCC0602FF66F2FBA0
:1045D4007F33F9FD7FEB10FC80B14F017F4EB0FEBD
:1045E4000020005238B5EFF31185102383F31288AD
:1045F400BFF36F8F064B9C6805F0A0F985F3118813
:10460400BFF36F8F2046BDE83840FCF7C7BE00BF3C
:104614009815002438B50A4B53F82040013053F85C
:104624002050A54200D838BD606830B1037EDB0756
:1046340001D405F058F90834F3E723689847FAE7FA
:1046440008AA0008284B0122032070B5274C86B025
:10465400274D1A70FFF7DEFF0420FFF7DBFF264625
:104664003034AE420FD3214C01F0AAF8AC4226D329
:1046740001F0BAF8FCF79CF91E4A938923F0010370
:10468400938106B070BD54F80C3C059354F8103C6B
:10469400049354F8143C039354F8183C029354F8CC
:1046A4001C3C019354F8203C009354E90A2354E938
:1046B4000C0100F015FD54F8303C5E65CFE7D4E9F9
:1046C4000A23B3F1FF3F08BFB2F1FF3F05D052EA1E
:1046D4000301206803D100F061FD3034C6E70649C8
:1046E400183001F039F9F8E7CD150024F8A60008D0
:1046F400F8A6000828100024859E000870B5002341
:1047040086B00122144E01930446144D06EBC016E4
:104714001349CDE904230F22CDE9023214234FF4C7
:10472400A07203FB00554FF4C0700E4B00FB041144
:104734003046009500F0D4FC337C0B4A23F004038C
:10474400EE602C7433744FF4046304FB033313449A
:104754006B6006B070BD00BFA80F0024981500243C
:10476400C0240024C59A0008801C00247FB50020C2
:10477400FFF750FF264B83F30888264D0024F023CF
:1047840085F82230EC772C766C76AC7685F8204070
:104794006B6A43F4E0236B62FCF7EAFCFCF7E8FD88
:1047A4004FF0FF33AB62EB62FCF74CFF1A4DFCF7A2
:1047B400A7FE1A4800F0E6FCFCF7C4F90120FFF755
:1047C40029FF0220FFF726FF00F0F2FF144B4FF4FD
:1047D400806214495D612846134B009405930123BC
:1047E400CDE90144CDE90343104B00F079FC2B7C67
:1047F4000646284623F004032B7405F01AFB2046D2
:10480400FFF77CFF094A31462846FCF793FD00BFB9
:10481400C024002400ED00E028100024A810002487
:1048240098150024402600240DB0000849460008CD
:1048340038B5064C064DAC4201D3002038BDD4E94E
:1048440001122046143405F0BEF8F4E71C040024D9
:104854003004002430B585B0044BDDE908450293EB
:10486400CDE9004505F06DF805B030BDBD63000825
:1048740038B5074C074DAC4201D3002038BD204663
:1048840005F0C5F808B91C34F5E76FF01500F5E735
:10489400000400241C04002473B50C46EFF31181BA
:1048A400102585F31288BFF36F8FC5685DB125604D
:1048B4002B68C360836901338361002081F311880D
:1048C400BFF36F8F11E052EA030603D16FF00B00C0
:1048D4002560F3E7CDE900230246083000F074FEBA
:1048E40018B9034B9B685B69236002B070BD00BFBD
:1048F40098150024F7B50D4604469DF82010EFF3F3
:104904001187102080F31288BFF36F8F266AE06846
:1049140086423FD22668B44219D0C6B1304605F06B
:10492400DAF806F1180001F0AFF82946002554F82A
:10493400082F706905F09DFB3046B56705F079FADC
:104944002046394605F0B4FA284603B0F0BDA26803
:10495400A9B12946E06905F08CFBE369A268134418
:1049640062699342E36101D12369E361236A002010
:104974000133236287F31188BFF36F8FE5E7A069E2
:1049840029462369984208BF6069801AA06105F02E
:1049940070FBEBE752EA03010BD0074904F108006E
:1049A40089684D613946CDE90023224600F00CFEAA
:1049B400CBE76FF02200DDE798150024F7B5044635
:1049C4000846EFF31186102181F31288BFF36F8F2D
:1049D400216A00293AD0A268A16905F04AFBA369BB
:1049E400A2682568134462699342A36104BF2369E2
:1049F400A361AC42236A03F1FF33236235D0284616
:104A0400002D33D005F067F805F1180001F03CF8EB
:104A14006969A2680027E06905F02BFBE369A268D5
:104A24002846134462699342E36104BF2369E36146
:104A3400236A01332362AF6705F0FBF904F1080030
:104A4400314605F035FA384603B0F0BD52EA0301A9
:104A540011D00A4989684861314604F10800CDE95A
:104A64000023224600F0B0FDEEE7002086F3118813
:104A7400BFF36F8FE8E76FF02200F7E79815002483
:104A84002DE9F341044617461E46EFF3118810231F
:104A940083F31288BFF36F8F304BC2689B6872B187
:104AA4008068984217D057EA060216D188F3118815
:104AB400BFF36F8F6FF00F0002B0BDE8F08193F980
:104AC4000E1001322161C4E9023288F31188BFF368
:104AD4006F8F0020F0E72169F3E793F90E1090F946
:104AE4000E30994230DA9942A8BF194605F016F8FB
:104AF4000546224641461A48CDE9007600F064FD99
:104B04000028E6D0EFF31186102383F31288BFF355
:104B14006F8FA068D0B1236821699C420AD04BB141
:104B240093F90E309942A8BF19466FF07F0399425A
:104B3400B8BF194604F0F2FF40B13146084805F009
:104B4400B7F96FF00A00B7E70025D2E7002DF4D1DA
:104B540086F31188BFF36F8FF3E700BF9815002425
:104B6400CE150024F8B583680546002B3FD0234AB0
:104B7400926893423ED1C368012B03D9013BC360C1
:104B84000020F8BDEFF31187102383F31288BFF3DD
:104B94006F8F0169806804F0C1FF2C68A54207D1BA
:104BA4000023C5E9023387F31188BFF36F8FE7E76A
:104BB400002CF5D0002604F11800D4E9003213606B
:104BC4005A60237CA66023F00203C4E900662374C0
:104BD40000F05AFFAC6094F90E3020462B61A667B2
:104BE40005F027F93946064805F062F9C8E76FF081
:104BF4001500C6E74FF0FF30C3E700BF9815002447
:104C0400CE15002437B51146EFF31185102282F337
:104C14001288BFF36F8F04689CB123680121426836
:104C240023F003039442036008BF4360204604F06A
:104C3400F1FF044685F31188BFF36F8F204603B05C
:104C440030BD51EA0302F5D000F10802CDE90013AA
:104C54001046294600F0B8FC0028EFD1014B9B68B0
:104C64005C69EBE79815002470B5EFF31186102307
:104C740083F31288BFF36F8F0468A0421AD0CCB1BB
:104C8400002504F11800D4E9003213605A60237C33
:104C9400A56023F00203C4E90055237400F0F4FE78
:104CA4002046A56705F0C5F831460848BDE87040C0
:104CB40005F0FEB8D0E902329A4218BF013383608E
:104CC40086F31188BFF36F8F70BD00BFCE1500242B
:104CD40013B5EFF31181102484F31288BFF36F8F9F
:104CE400846844B1013C846081F31188BFF36F8F01
:104CF400002002B010BD52EA030406D181F31188EA
:104D0400BFF36F8F6FF00F00F3E7CDE90023024686
:104D1400014800F059FCECE7CE15002470B50546B7
:104D2400EFF31186102383F31288BFF36F8F0023F0
:104D34002C68A54218D0BCB104F11800D4E90032A3
:104D440013605A600023227CA36022F00202C4E9AB
:104D54000033227400F098FE6FF00A032046A36724
:104D640005F067F80123E3E70022AA6023B986F37C
:104D74001188BFF36F8F70BD31460248BDE87040A3
:104D840005F096B8CE1500242DE9FF4104461027FE
:104D9400534EEFF3118887F31288BFF36F8FD4F863
:104DA4008450F5B9022104F19C0004F060FF00284E
:104DB40070D004F1940500220121284605F0BAF8C8
:104DC4000028F8D100234FF0FF32414645480293B2
:104DD4004FF0FF33CDE9002304F18C0200F01AFDFB
:104DE400D7E7D4F888202B689542C4F8843008BFEC
:104DF400C4F88830D4F89C3043F00203C4F89C30E3
:104E0400EB6823F0040343F00103EB606B6888F361
:104E14001188BFF36F8F28469847EFF3118887F303
:104E24001288BFF36F8FEB68D80623F001023ED4DB
:104E3400EA60EB689A0717D523F002033068EB6049
:104E440090B10368002178B1426895423DD103686E
:104E5400002934D172683360904200D1736000231A
:104E640040F8083BFFF700FFD4F89C3023F002031E
:104E7400C4F89C30DB0530D4D4F88430003B18BF30
:104E8400012388F31188BFF36F8F002B81D004F0C6
:104E940096FF7EE7D4F89C30D90693D5C4F89C00DD
:104EA40088F31188BFF36F8F04B0BDE8F08123F05D
:104EB4001103EB6005F11000FFF7D6FEB9E70B60B4
:104EC4007368984208BF7160C9E701461BB11A684C
:104ED40018461346B7E71A46FAE70023D1E700BF9E
:104EE400B8150024CE150024F8B5C36804460E4650
:104EF4009A07C3F3400541D45F0741D40B680BB94B
:104F040083680B60E368D80745BFA36802250125C1
:104F14003360376857B31C4B9A68D7F880309A428D
:104F24001ED104F024FF80F00100C0B2D7F89C30F9
:104F3400D907C3F380021CD5F2B1F8B10023236072
:104F4400D7F8883073B9C7E92144384604F0A9FE7C
:104F5400E36843F00403E3603368A3602846F8BDC4
:104F64000020E3E71C60C7F88840EEE76FF0150502
:104F740006E06FF0120503E01B07DFD56FF00F05A5
:104F840000233360EAE700BF981500240146014876
:104F940004F0D1BE48110024F0B50446002089B0C5
:104FA400C4E9210004F18C000E9DC4E9230004F13E
:104FB4009400C4E9250055B32879002840F2011073
:104FC40008BF0120C4F89C0000204FF0FF364FF0CA
:104FD400FF370094CDE90330CDE901000D4B2046A5
:104FE400CDE9066700F0FEF855B1296811B12046F5
:104FF40004F0C3FE6B791BB1A38943F00103A381C1
:10500400204600F0CBF8C4F8804009B0F0BD012080
:10501400D8E700BF8D4D000837B501900846EFF37F
:105024001184102181F31288BFF36F8FC16811F0CE
:105034001E0F17D153EA020508D101A9FFF754FF47
:1050440084F31188BFF36F8F03B030BD41F00801C2
:10505400103040F8041C01998161034900F07CFC84
:105064000120EDE70020EBE7B59C0008014601486C
:10507400FFF7D2BF48110024F7B50C4616461D466B
:105084000190EFF31187102383F31288BFF36F8F1E
:10509400084604F0F7FD55EA060309D101A92046A4
:1050A400FFF722FF87F31188BFF36F8F03B0F0BDC2
:1050B400E3683246064904F1100043F00803E36054
:1050C400019BA3622B4600F047FC0120EAE700BFE6
:1050D400B59C000801460148FFF7CEBF48110024E3
:1050E40007322DE9F04322F0070285B01F4600F194
:1050F40058037F3200250E460F9922F03F020446E2
:105104008173002185603F2AC57306F14009A2F12D
:105114004008C0E91633109B83814FF00403C0E9B3
:10512400065503744FF00000C4E90A0105D885F35D
:105134001188BFF36F8F184602DFB5182046294641
:10514400FBF700FE07300E9B314620F00700C4E950
:105154001898A0662D1A029320460D9B2A460193A7
:105164000C9B00933B46FCF7B9F800236365044BA2
:105174009B6803B1DB6E2846E36605B0BDE8F083A7
:10518400981500240123037483810023C0E9183394
:10519400C366014B986070479815002438B50446DF
:1051A400EFF31185102383F31288BFF36F8F037C11
:1051B4005B070FD5183000F067FC237C204623F0F2
:1051C4000403237404F044FE29460548BDE838402E
:1051D40004F06EBE85F31188BFF36F8F38BD00BF36
:1051E400CE150024F0B5002587B004460595109D22
:1051F40004950F9D03950E9D02950D9D01950C9DA3
:10520400DDE912760095FFF76BFFB6F1FF3F08BFAB
:10521400B7F1FF3F05D056EA070305D12046FFF753
:10522400BDFF204607B0F0BD3A46334604F11800EE
:10523400014900F091FBF4E7859E0008094A6FF0EC
:105244000A0193689967084958674B6843F080538B
:105254004B60002383F31188BFF36F8F9368986FBB
:10526400704700BF9815002400ED00E038B590F9B0
:1052740010200146037C002A04DA03F07F03037440
:1052840004F09FFD0D4D2A46AB6852F8184F944226
:1052940000D004B9EC688B4207D01A7CD20604D142
:1052A400DA897F2A01D9A2692AB1A34202D0204611
:1052B40000F0F2FA23466B6138BD00BF9815002454
:1052C40070B590F91020037C002A2FDBD9062DD16C
:1052D4001A4C63F07F0322460374E16952F8183FC5
:1052E400934207D1C0E900210860E0610FE09942D0
:1052F400F8D01B68002BF5D093F90E6090F90E508E
:10530400AE42F4DD5968C0E9003108605860A5690F
:10531400954200D005B9E568A3681A7CD20606D187
:10532400DA897F2A03D9AA690AB9636170BDAB42DD
:1053340002D0284600F0B0FA6561F7E7981500241A
:10534400034648B9EFF3058232B9064A51699268B7
:10535400914201D0FFF772BF83F31188BFF36F8FBF
:10536400704700BF9815002438B5184CA168E0694F
:105374000B68814214BF1A46002249680B605960C9
:10538400A368E1692AB9124AC3E900210B60E36109
:105394000AE092F90E5093F90E00854212DD51682D
:1053A400C3E900210B605360A569094B9D4200D0FD
:1053B40005B9E568A3689D4202D0284600F06CFA5E
:1053C400656138BD8A42DED01268DBE79815002497
:1053D400B0150024002A2DE9F0470CBF4FF0100946
:1053E4004FF00809027C04460E460F4619EA020FE4
:1053F40028D149EA0203D20946D10374B9F1080F4E
:1054040048D04FF00008DFF8F0A0534653F8185F77
:105414009D4200D00DB9DAF80C50DAF80830AB42EE
:1054240002D0284600F038FAB9F1100FCAF8145027
:1054340008D0204601F091F9B8F1000F02D02F48AE
:10544400FFF7A0FE2C4B9B68A3424FD1EFF30583DB
:10545400002B4BD1A289D20711D586F31188BFF353
:105464006F8F83F31188BFF36F8F0423184602DF15
:10547400EFF31187102383F31288BFF36F8F38463D
:10548400BDE8F047FFF7DABE03F07F03037404F0CE
:1054940098FCB3E7A36813B1204604F09AFC04F126
:1054A400180004F1580800F0EFFAA56DA84511D0D2
:1054B4004FF0000A75B1284604F08BFC05F1180082
:1054C40000F0E2FA2846C5F878A0FFF7F9FEA56DCA
:1054D400A845EFD1084B9B689C4292D1EFF3058815
:1054E400B8F1000818BF4FF001088CE786F3118863
:1054F400BFF36F8FBDE8F08798150024A81000242F
:1055040070B50F4D06462B4653F8184F9C4200D0F9
:1055140004B9EC68AB681A7CD20604D1DA897F2A14
:1055240001D9A2692AB1A34202D0204600F0B4F9FD
:10553400234630466B61BDE87040FFF701BF00BFF2
:105544009815002470B5EFF31186102383F31288A5
:10555400BFF36F8F1A4CA168E0690B68814214BFD6
:105564001A46002249680B605960A368E1692AB9A8
:10557400144AC3E900210B60E3610AE092F90E507A
:1055840093F90E00854216DD5168C3E900210B60D2
:105594005360A5690B4B9D4200D005B9E568A3682B
:1055A4009D4202D0284600F077F930466561BDE897
:1055B4007040FFF743BE8A42DAD01268D7E700BFD3
:1055C40098150024B0150024F8B5124B0C4611466A
:1055D400114A9868DDE906761060EFF31182102213
:1055E40082F31288BFF36F8F9D68284604F0FBFB9B
:1055F400B6F1FF3F08BFB7F1FF3F06D03A46334646
:10560400064905F1180000F0A7F92046BDE8F84066
:10561400FFF714BE98150024C0150024859E0008C9
:10562400F8B50446EFF31187102383F31288BFF310
:105634006F8F037C49B203F01F02002A0CBF0126BE
:10564400002635D103F07F032A4D037404F0B9FB1F
:10565400037C2A46817363F07F03037452F8183F76
:10566400E869934207D1C4E900200460EC610DE0CD
:105674009842F8D01B68002BF5D093F90EC08C45E6
:10568400F6DD5968C4E900310C605C60AC69944291
:1056940000D004B9EC68AB689C4202D0204600F00C
:1056A400FBF86C6187F31188BFF36F8F3046F8BD48
:1056B4009B071CD5856804F084FB81732B689D428D
:1056C40009D16B68C4E900531C606C60EAE76A683E
:1056D4009A42F6D01B68002BF3D093F90E208A422D
:1056E400F5DD5A68C4E9003214605C60DAE781735E
:1056F400D8E700BF98150024034648B9EFF30582A4
:1057040032B9064A51699268914201D0FFF796BDB9
:1057140083F31188BFF36F8F704700BF981500247F
:10572400F8B550EA010306460C4603D104F047FBE2
:105734000020F8BDEFF31187102383F31288BFF321
:105744006F8F174D174BA868186004F083FBA86887
:10575400324623461449183000F0FEF8AB6804467C
:105764001A7C5F6742F004021A746FF00A029A67A7
:105774000E4A536843F080535360002383F3118827
:10578400BFF36F8FAA68D2E90A12B2F1004F08BFC3
:105794009942CDD104F010FC201A20EAE070C8E749
:1057A40098150024C0150024859E000800ED00E033
:1057B400024B03F11802C3E906227047981500242E
:1057C400EFF31181102383F31288BFF36F8F054B1E
:1057D4009A68D37B013BD37381F31188BFF36F8F36
:1057E400704700BF98150024EFF31180102383F352
:1057F4001288BFF36F8F034B9A68D37B0133D37343
:10580400FFF77EBE98150024014B9868704700BFCF
:1058140098150024D3B5DDE90667089CCDE9006737
:10582400FFF7D2FE1CB1034B9B685B69236002B097
:10583400D0BD00BF98150024027C034612F01F025D
:1058440010D10A4988420DD00949086868B1D9893C
:105854007F2909D893F90E20064B1B689A42B8BFDA
:10586400002070470020704710467047A80F00249E
:1058740020030024C4150024044B0122C01A044B45
:10588400C0105843034B1A54704700BF281100241A
:10589400ABAAAAAACE150024F8B50C4B0C4D1E7C5D
:1058A400FFF7CAFF182304460A4F03FB0655284690
:1058B40000F0EAF834B1BB5D28460749E21AD31771
:1058C40000F04AF80023BB55F8BD00BF981500242A
:1058D40028110024CE1500247D58000870B5EFF37C
:1058E4001186102383F31288BFF36F8F0F4D104B73
:1058F400AC681868A04202D1FFF7CEFF11E0002285
:105904001A602B7C0B4AD35C5BB12046FFF794FFF3
:1059140038B1237CDB0604D1FFF726FD6869A04279
:10592400EAD086F31188BFF36F8F70BD98150024F9
:10593400C0150024CE150024024B1868984208BFF5
:105944000020704728030024024B186808B1FDF7B3
:10595400A1BE704724030024B3F1FF3F08BFB2F196
:10596400FF3F2DE9F84F0446994615461F4600F0BF
:1059740081808160EFF31188102383F31288BFF3D1
:105984006F8FB9F1000FDFF8F4A025DBFFF7DCFF20
:105994003B4B06461B68003B18BF0123451949EBE6
:1059A400E0795B19DAE9005749F100024FF0010987
:1059B4005D1942EB0707C4E90432FFF7BDFFDFF8C6
:1059C400C4E00346DEF804A0EBB9C4E900EACAF86F
:1059D4000040CEF8044028E0DAE900126FF0010339
:1059E4005B1A4FF0FF3161EB02025B1B62EB0902B1
:1059F400012B4FF0000972F10001BCBF012300220A
:105A0400C0E90432D9E7D3E9041CD4E904208A426A
:105A140070EB0C0B25DA891A5A686CEB0000C3E9A9
:105A24000410C4E9003214605C60FFF785FF84420F
:105A34000FD1134B1B6801330BD1B9F1000F02D105
:105A4400FFF782FF0646304604F09FFA0021FDF777
:105A5400A9FD88F31188BFF36F8F28463946BDE846
:105A6400F88F521A60EB0C005345C4E90420ACD003
:105A74001B68A9E700252F46EFE700BF401100246B
:105A840024030024280300240246F8B5EFF311850B
:105A9400102383F31288BFF36F8F016851B3FFF7AC
:105AA4004BFF1C4B5B689A4208D0D1E90434D2E91D
:105AB4000476DB1944EB0604C1E90434D2E900316D
:105AC400002400264FF0004790420B605960C2E961
